:100000000C9434000C94D6000C94D6000C94D600BA
:100010000C94D6000C94D6000C94D6000C94D60008
:100020000C94D6000C94D6000C94D6000C94D600F8
:100030000C94D6000C94D6000C94D6000C94D600E8
:100040000C94D6000C94D6000C94D6000C94D600D8
:100050000C94D6000C9495000C94D6000C94D60009
:100060000C94D6000C94D60011241FBECFEFD8E01C
:10007000DEBFCDBFE8E6F0E040E017C0B591A59146
:1000800035912591059107FD0CC095918591EF0162
:10009000F92FE82F05900D92A217B307D9F7FE01AB
:1000A00004C01D92A217B307E1F7E836F40731F751
:0C00B0000E94BF000C94CB00F894FFCF1E
:1000BC003F065B4F666D7D077F6F777C395E79718C
:1000CC00ACE7B0E085E08C93EAE7F0E010828C912D
:1000DC0080628C938C9180648C938C918F778C93B1
:1000EC008081806880838081886080838081876044
:1000FC008083EEE7F0E08081806280831092C10003
:10010C008FEF8AB91BB884B915B887B18D7F87B9C1
:0E011C0087B18B7F87B988B1866088B9089556
:10012A001F920F920FB60F9211248F939F93AF9342
:10013A00EF93FF938091790082958F7090E0A0E011
:10014A0084549F4FAF4FFC018491A7FD80818BB9E6
:10015A00EAE7F0E080818061808380818064808327
:10016A00FF91EF91AF919F918F910F900FBE0F90DA
:04017A001F90189525
:10017E00F8940E9466007894EAE7F0E0808180644B
:08018E00808384E085B9FFCFF6
:10019600EC010E94DB000E94DA00CE010E94DC0026
:0601A600CE010E94D8000A
:0401AC000C940000AF
:0401B0000E945C004D
:0201B4000895AC
:0201B6000895AA
:0201B8000895A8
:00000001FF
