:020000020000FC
:040000000C9422003A
:040010000C947700D5
:100040000C948B000FEF0DBF08E00EBF7E306D7972
:10005000335B5F707F7B771F4E3D4F4700E000931F
:10006000C100F0E0ECE4289A2098299A21980FE04A
:1000700007B900E008B9229A2A98239A2B980FEF23
:100080000AB900E00BB900E004BD05E005BD02E6D9
:1000900006BD01E000936E0000E80093610005E0FA
:1000A0000093610001E00093680003E000936B009F
:1000B000789448B92B9AECE4F0E0E10F24912BB945
:1000C00037D02B982A9AECE4E50F64916BB930D0C5
:1000D0002A981A3021F0343661F73327EACF10E03E
:1000E000ECE453955A3009F0E4CF50E0E2CF0F939F
:1000F0000FB70F9303B100FD04C0439544FD44279F
:1001000005C001FF4A9544FD4FE000C0D89A0F9109
:100110000FBF0F9118950F930FB70F9302E306BD12
:10012000A89A339513950F910FBF0F9118950895C5
:0801300004E60A95F1F70895B9
:00000001FF
