:020000020000FC
:040000000C9420003C
:040010000C94460006
:100040000FEF0DBF08E00EBF00E00093C100289A3B
:100050002098299A21980FE007B900E008B900E834
:100060000093610005E00093610001E000936800E7
:1000700003E000936B007E306D79335B5F707F7BB4
:10008000771F4E3D4F47789448B9FECF0F930FB777
:100090000F9303B100FD04C0439544FD442705C000
:1000A00001FF4A9544FD4FE000C0D89A0F910FBF61
:1000B0000F91189500E004BD05E005BD02E607BDFF
:00000001FF
