:020000020000FC
:100000000FEF0DBF08E00EBF7E306D79335B5F7080
:100010007F7B771F4E3D4F4700E80093610005E06E
:100020000093610002E004BD05E005BD02E607BDE6
:100030000FE007B900E008B900E308B90FEF0AB90B
:1000400000EF0BB9259A2D9800E00093C10056B13E
:1000500054FD0E94370055FD0E943D0015B311FD6F
:1000600001C0F5CF1D9A439548B9A99AF0CF0E94D7
:10007000430023950E94480008950E9443002A955A
:100080000E944800089530E033953F3FE9F7089516
:0C009000F0E0E8E0E20F04910BB90895E5
:00000001FF
