:020000020000FC
:100000000FEF0DBF08E00EBF7E306D79335B5F7080
:100010007F7B771F4E3D4F4700E80093610005E06E
:100020000093610002E004BD05E005BD02E607BDE6
:100030000FE007B900E008B900E308B90FEF0AB90B
:1000400000EF0BB9259A2D9800E00093C10056B13E
:1000500054FD0E943A0055FD0E94400015B311FD69
:1000600004C02417F1F4F9F0F2CF439548B94217D0
:10007000A99AEDCF0E94460023950E944B00089557
:100080000E9446002A950E944B00089530E0339567
:100090003F3FE9F70895F0E0E8E0E20F04910BB983
:0A00A00008952D98D4CF2D9AD2CFE9
:00000001FF
