:100000000C9434000C9451000C9451000C942D026B
:100010000C9451000C9451000C9451000C9451001C
:100020000C9451000C9451000C9451000C9451000C
:100030000C9451000C9451000C9451000C945100FC
:100040000C9451000C9451000C9451000C945100EC
:100050000C9451000C9451000C9451000C945100DC
:100060000C9451000C94510011241FBECFEFD8E026
:10007000DEBFCDBF11E0A0E0B1E0EEEDF8E002C0E0
:1000800005900D92A230B107D9F721E0A2E0B1E0CE
:1000900001C01D92A730B207E1F70E9400020C9444
:1000A0006D040C94000084B1826084B984B18460D2
:1000B00084B9A0E8B0E01C92E1E8F0E010828C91F5
:1000C000826A8C9380818D618083109287008CE995
:1000D000809386001092890083E0809388000895C1
:1000E000682F70E080E090E00E94720320E030E032
:1000F0004FE753E40E94D10220E030E048E252E4AE
:100100000E94000420E030E040E450E40E946502D8
:100110000E944303862F089584B1886084B98AB110
:1001200088608AB9A0EBB0E01C92E1EBF0E01082AD
:100130008C91836A8C9380818F60808383E080932D
:10014000B3008093B4000895682F70E080E090E0E1
:100150000E94720320E030E04FE753E40E94D10296
:1001600020E030E048E252E40E94000420E030E069
:1001700040E450E40E9465020E944303862F0895E4
:10018000682F70E080E090E00E94720320E030E091
:100190004FE753E40E94D10220E030E048E252E40D
:1001A0000E94000420E030E040E450E40E94650238
:1001B0000E944303862F0895AAE7B0E01C92ECE763
:1001C000F0E01082808180628083808180648083FF
:1001D00080818F7780838C9187608C930895809144
:1001E0000201813089F160F0823009F454C083301B
:1001F00009F47BC00895EAE7F0E080818F7780837F
:1002000080917A008823BCF381E080930201ECE7BF
:10021000F0E08081887F8083EAE7F0E08081806879
:1002200080838081806480838FE19EE40197F1F771
:1002300000C0000080917900809306010895EAE7EC
:10024000F0E080818F77808380917A008823BCF3EF
:1002500082E080930201ECE7F0E08081887F808378
:10026000808181608083EAE7F0E08081806880831C
:100270008081806480838FE19EE40197F1F700C064
:10028000000080917900809305010895EAE7F0E08D
:1002900080818F77808380917A008823BCF383E00C
:1002A00080930201ECE7F0E08081887F8083808189
:1002B00082608083808181608083EAE7F0E08081D2
:1002C000806880838081806480838FE19EE40197D1
:1002D000F1F700C000008091790080930401089537
:1002E000EAE7F0E080818F77808380917A0088232D
:1002F000BCF310920201ECE7F0E08081887F8083FC
:10030000808183608083808181608083EAE7F0E080
:100310008081806880838081806480838FE19EE417
:100320000197F1F700C000008091790080930301EC
:100330000895E1E6F0E08081816880838AB1806180
:100340008AB98BB18F7E8BB98AB180628AB98BB141
:100350008F7D8BB98AB180648AB98BB18F7B8BB961
:100360008AB180688AB98BB18F778BB984B18E7F5F
:1003700084B985B1816085B984B18F7E84B985B136
:10038000806185B984B18F7D84B985B1806285B97A
:1003900087B18F7E87B988B1806188B98AB18B7F38
:1003A0008AB98BB184608BB9E8E6F0E08081816026
:1003B0008083EBE6F0E08081816080830895809106
:1003C0000001823059F0833081F08130A9F48BB183
:1003D00080618BB98BB18F798BB908958BB18062B5
:1003E0008BB98BB18F7A8BB908958BB180648BB93F
:1003F0008BB18F7C8BB908958BB18F788BB90895B1
:10040000F8940E9499010E94DC000E9453000E940F
:100410008C0078940E94EF00809106010E94700089
:1004200090E09093890080938800809105010E945C
:10043000700090E090938B0080938A00809104017B
:100440000E94A4008093B300809103010E94C00029
:100450008093B4000E94DF01DDCF1F920F920FB690
:100460000F9211242F938F939F9383B123B190E028
:1004700002C0959587952A95E2F780FD1DC02FEF64
:1004800080E792E0215080409040E1F700C00000FA
:1004900083B123B190E002C0959587952A95E2F744
:1004A00080FD0AC0809100018F5F8093000184303D
:1004B00018F081E0809300019F918F912F910F9010
:1004C0000FBE0F901F9018955058BB27AA270E9467
:1004D0007C020C94C6030E94B80338F00E94BF034C
:1004E00020F039F49F3F19F426F40C94B5030EF470
:1004F000E095E7FB0C94AF03E92F0E94D70358F374
:10050000BA17620773078407950720F079F4A6F5F8
:100510000C94F9030EF4E0950B2EBA2FA02D0B01CD
:10052000B90190010C01CA01A0011124FF27591B38
:1005300099F0593F50F4503E68F11A16F040A22F3E
:10054000232F342F4427585FF3CF469537952795AF
:10055000A795F0405395C9F77EF41F16BA0B620BAE
:10056000730B840BBAF09150A1F0FF0FBB1F661FF5
:10057000771F881FC2F70EC0BA0F621F731F841F38
:1005800048F4879577956795B795F7959E3F08F05E
:10059000B0CF9395880F08F09927EE0F9795879520
:1005A00008950E94E5020C94C6030E94BF0358F010
:1005B0000E94B80340F029F45F3F29F00C94AF0388
:1005C00051110C94FA030C94B5030E94D70368F3FD
:1005D0009923B1F3552391F3951B550BBB27AA27FC
:1005E00062177307840738F09F5F5F4F220F331F36
:1005F000441FAA1FA9F335D00E2E3AF0E0E832D0FE
:1006000091505040E695001CCAF72BD0FE2F29D000
:10061000660F771F881FBB1F261737074807AB07D2
:10062000B0E809F0BB0B802DBF01FF2793585F4F47
:100630003AF09E3F510578F00C94AF030C94FA0306
:100640005F3FE4F3983ED4F3869577956795B79529
:10065000F7959F5FC9F7880F911D9695879597F934
:100660000895E1E0660F771F881FBB1F62177307AD
:100670008407BA0720F0621B730B840BBA0BEE1FC2
:1006800088F7E09508950E94DF0388F09F5798F05F
:10069000B92F9927B751B0F0E1F0660F771F881F87
:1006A000991F1AF0BA95C9F714C0B13091F00E94A1
:1006B000F903B1E008950C94F903672F782F882788
:1006C000B85F39F0B93FCCF3869577956795B395C8
:1006D000D9F73EF490958095709561957F4F8F4F37
:1006E0009F4F0895E89409C097FB3EF4909580953C
:1006F000709561957F4F8F4F9F4F9923A9F0F92FE8
:1007000096E9BB279395F695879577956795B79565
:10071000F111F8CFFAF4BB0F11F460FF1BC06F5F4B
:100720007F4F8F4F9F4F16C0882311F096E911C05D
:10073000772321F09EE8872F762F05C0662371F07E
:1007400096E8862F70E060E02AF09A95660F771F92
:10075000881FDAF7880F9695879597F9089597F986
:100760009F6780E870E060E008959FEF80EC089557
:1007700000240A9416161706180609060895002480
:100780000A9412161306140605060895092E0394FA
:10079000000C11F4882352F0BB0F40F4BF2B11F46E
:1007A00060FF04C06F5F7F4F8F4F9F4F089557FDCD
:1007B0009058440F551F59F05F3F71F04795880FCF
:1007C00097FB991F61F09F3F79F087950895121666
:1007D00013061406551FF2CF4695F1DF08C0161612
:1007E00017061806991FF1CF8695710561050894C3
:1007F0000895E894BB2766277727CB0197F90895DA
:100800000E9413040C94C6030E94B80338F00E949F
:10081000BF0320F0952311F00C94AF030C94B503A3
:1008200011240C94FA030E94D70370F3959FC1F32F
:10083000950F50E0551F629FF001729FBB27F00D8E
:10084000B11D639FAA27F00DB11DAA1F649F6627E3
:10085000B00DA11D661F829F2227B00DA11D621F32
:10086000739FB00DA11D621F839FA00D611D221FEC
:10087000749F3327A00D611D231F849F600D211DD0
:10088000822F762F6A2F11249F5750409AF0F1F053
:1008900088234AF0EE0FFF1FBB1F661F771F881FBC
:1008A00091505040A9F79E3F510580F00C94AF0342
:1008B0000C94FA035F3FE4F3983ED4F38695779562
:1008C0006795B795F795E7959F5FC1F7FE2B880F62
:0E08D000911D9695879597F90895F894FFCF9E
:0208DE00010017
:00000001FF
