:100000000C9434000C9446000C9446000C9446006A
:100010000C9446000C9446000C9446000C94460048
:100020000C9446000C9446000C9446000C94460038
:100030000C9446000C9446000C9446000C94460028
:100040000C9446000C9446000C9446000C94460018
:100050000C9446000C9446000C9446000C94460008
:100060000C9446000C94460011241FBECFEFD8E03C
:10007000DEBFCDBF21E0A0E0B1E001C01D92A53000
:10008000B207E1F70E9446010C9476030C9400003D
:1000900084B1826084B984B1846084B9A0E8B0E09E
:1000A0001C92E1E8F0E010828C91826A8C9380814E
:1000B0008D61808381E08093870087E38093860051
:1000C0001092890089E0809388000895682F70E07D
:1000D00080E090E00E947B0220E030E04FE753E4B4
:1000E0000E94DA0120E030E048EA51E40E9409036E
:1000F00020E030E040E151E40E946E010E944C0299
:10010000862F089584B1886084B98AB188608AB9DD
:10011000E0EBF0E01082A1EBB0E01C9280818068FF
:1001200080838081836080838C918F608C9389E051
:100130008093B3008093B4000895682F70E080E04E
:1001400090E00E947B0220E030E040EC50E40E940E
:10015000DA010E944C02862F0895682F70E080E03B
:1001600090E00E947B0220E030E040EC50E40E94EE
:10017000DA010E944C02862F0895AAE7B0E01C9293
:10018000ECE7F0E01082808180628083808180646F
:10019000808380818F7780838C9187688C93EEE752
:1001A000F0E080818F60808308958091000181302C
:1001B000E9F030F0823099F1833009F44CC00895B1
:1001C00080917A0086FDFCCF81E080930001ECE70E
:1001D000F0E08081887F8083EAE7F0E080818064BE
:1001E00080838091790080930401089580917A0042
:1001F00086FDFCCF82E080930001ECE7F0E0808197
:10020000887F8083808181608083EAE7F0E080815D
:1002100080648083809179008093030108958091A8
:100220007A0086FDFCCF83E080930001ECE7F0E0EC
:100230008081887F808380818260808380818160EB
:100240008083EAE7F0E08081806480838091790098
:1002500080930201089580917A0086FDFCCF109270
:100260000001ECE7F0E08081887F808380818360FB
:100270008083808181608083EAE7F0E08081806410
:100280008083809179008093010108950E94BD00D0
:100290000E9448000E9482000E94D50080910401C3
:1002A0000E94660090E0909389008093880080917E
:1002B00003010E94660090E090938B0080938A0077
:1002C000809102010E949D008093B3008091010102
:1002D0000E94AD008093B400DFCF5058BB27AA27FF
:1002E0000E9485010C94CF020E94C10238F00E9446
:1002F000C80220F039F49F3F19F426F40C94BE0292
:100300000EF4E095E7FB0C94B802E92F0E94E0029E
:1003100058F3BA17620773078407950720F079F43A
:10032000A6F50C9402030EF4E0950B2EBA2FA02D27
:100330000B01B90190010C01CA01A0011124FF2792
:10034000591B99F0593F50F4503E68F11A16F0408D
:10035000A22F232F342F4427585FF3CF469537958C
:100360002795A795F0405395C9F77EF41F16BA0B51
:10037000620B730B840BBAF09150A1F0FF0FBB1FFF
:10038000661F771F881FC2F70EC0BA0F621F731F48
:10039000841F48F4879577956795B795F7959E3FA5
:1003A00008F0B0CF9395880F08F09927EE0F979536
:1003B000879508950E94EE010C94CF020E94C80216
:1003C00058F00E94C10240F029F45F3F29F00C94DC
:1003D000B80251110C9403030C94BE020E94E00277
:1003E00068F39923B1F3552391F3951B550BBB2764
:1003F000AA2762177307840738F09F5F5F4F220FA9
:10040000331F441FAA1FA9F335D00E2E3AF0E0E89F
:1004100032D091505040E695001CCAF72BD0FE2FE9
:1004200029D0660F771F881FBB1F2617370748077D
:10043000AB07B0E809F0BB0B802DBF01FF27935835
:100440005F4F3AF09E3F510578F00C94B8020C943F
:1004500003035F3FE4F3983ED4F386957795679561
:10046000B795F7959F5FC9F7880F911D969587956A
:1004700097F90895E1E0660F771F881FBB1F621789
:1004800073078407BA0720F0621B730B840BBA0B47
:10049000EE1F88F7E09508950E94E80288F09F57C4
:1004A00098F0B92F9927B751B0F0E1F0660F771F98
:1004B000881F991F1AF0BA95C9F714C0B13091F08E
:1004C0000E940203B1E008950C940203672F782F75
:1004D0008827B85F39F0B93FCCF386957795679553
:1004E000B395D9F73EF490958095709561957F4FBF
:1004F0008F4F9F4F0895E89409C097FB3EF4909565
:100500008095709561957F4F8F4F9F4F9923A9F0EC
:10051000F92F96E9BB279395F6958795779567957B
:10052000B795F111F8CFFAF4BB0F11F460FF1BC0BF
:100530006F5F7F4F8F4F9F4F16C0882311F096E952
:1005400011C0772321F09EE8872F762F05C0662300
:1005500071F096E8862F70E060E02AF09A95660FB9
:10056000771F881FDAF7880F9695879597F9089572
:1005700097F99F6780E870E060E008959FEF80EC56
:10058000089500240A9416161706180609060895F9
:1005900000240A9412161306140605060895092E5F
:1005A0000394000C11F4882352F0BB0F40F4BF2BCE
:1005B00011F460FF04C06F5F7F4F8F4F9F4F08950E
:1005C00057FD9058440F551F59F05F3F71F0479504
:1005D000880F97FB991F61F09F3F79F087950895E9
:1005E000121613061406551FF2CF4695F1DF08C008
:1005F000161617061806991FF1CF86957105610525
:1006000008940895E894BB2766277727CB0197F9CC
:1006100008950E941C030C94CF020E94C10238F07E
:100620000E94C80220F0952311F00C94B8020C949B
:10063000BE0211240C9403030E94E00270F3959F04
:10064000C1F3950F50E0551F629FF001729FBB27C9
:10065000F00DB11D639FAA27F00DB11DAA1F649F65
:100660006627B00DA11D661F829F2227B00DA11D18
:10067000621F739FB00DA11D621F839FA00D611D9E
:10068000221F749F3327A00D611D231F849F600DBF
:10069000211D822F762F6A2F11249F5750409AF0E8
:1006A000F1F088234AF0EE0FFF1FBB1F661F771F74
:1006B000881F91505040A9F79E3F510580F00C943F
:1006C000B8020C9403035F3FE4F3983ED4F386959D
:1006D00077956795B795F795E7959F5FC1F7FE2BDF
:1006E000880F911D9695879597F90895F894FFCFF7
:00000001FF
