S012000050726F796563746F20322E737265636B
S11300000C9434000C9451000C9451000C9429026B
S11300100C94B2020C9451000C9451000C945100B5
S11300200C9451000C9451000C9451000C94510008
S11300300C9451000C9451000C9451000C945100F8
S11300400C9451000C9451000C940A030C9451002C
S11300500C9451000C9451000C9451000C945100D8
S11300600C9451000C94510011241FBECFEFD8E022
S1130070DEBFCDBF11E0A0E0B1E0EAEBFFE002C0DB
S113008005900D92A230B107D9F721E0A2E0B1E0CA
S113009001C01D92AE31B207E1F70E9457050C94DE
S11300A0DB070C94000084B1826084B984B184605D
S11300B084B9A0E8B0E01C92E1E8F0E010828C91F1
S11300C0826A8C9380818D618083109287008CE991
S11300D0809386001092890083E0809388000895BD
S11300E0682F70E080E090E00E94CA0620E030E0D3
S11300F04FE753E40E94290620E030E048E252E44E
S11301000E94580720E030E040E450E40E94BD051E
S11301100E949B06862F0895682F70E080E090E08F
S11301200E94CA0620E030E04FE753E40E9429060B
S113013020E030E048E252E40E94580720E030E03A
S113014040E450E40E94BD050E949B06862F08955A
S113015084B1886084B98AB188608AB9A0EBB0E0C0
S11301601C92E1EBF0E010828C91836A8C93808185
S11301708760808383E08093B3008093B400089504
S1130180682F70E080E090E00E94CA0620E030E032
S11301904FE753E40E94290620E030E048E252E4AD
S11301A00E94580720E030E040E450E40E94BD057E
S11301B00E949B06862F0895682F70E080E090E0EF
S11301C00E94CA0620E030E04FE753E40E9429066B
S11301D020E030E048E252E40E94580720E030E09A
S11301E040E450E40E94BD050E949B06862F0895BA
S11301F0AAE7B0E01C92ECE7F0E010828081806214
S1130200808380818064808380818F7780838C91D8
S113021087608C93089580911701813089F160F093
S1130220823009F454C0833009F47CC00895EAE7AD
S1130230F0E080818F77808380917A008823BCF3FB
S113024081E080931701ECE7F0E08081887F808370
S1130250EAE7F0E080818068808380818064808325
S11302608FE19EE40197F1F700C0000080917900CE
S113027080931B010895EAE7F0E080818F77808303
S113028080917A008823BCF382E080931701ECE725
S1130290F0E08081887F8083808181608083EAE7C9
S11302A0F0E08081806880838081806480838FE136
S11302B09EE40197F1F700C00000809179008093DB
S11302C01A010895EAE7F0E080818F7780838091B6
S11302D07A008823BCF383E080931701ECE7F0E015
S11302E08081887F8083808182608083EAE7F0E078
S11302F08081806880838081806480838FE19EE434
S11303000197F1F700C000008091790080931901F2
S11303100E94C0008093B3000895EAE7F0E0808172
S11303208F77808380917A008823BCF31092170121
S1130330ECE7F0E0808183608083EAE7F0E080818D
S1130340806880838081806480838FE19EE401974C
S1130350F1F700C0000080917900809318010E9499
S1130360DC008093B4000895E1E6F0E080818168C8
S113037080838AB180618AB98BB18F7E8BB98AB14F
S113038080628AB98BB18F7D8BB98AB180648AB956
S11303908BB18F7B8BB98AB180688AB98BB18F7727
S11303A08BB984B18E7F84B985B1816085B984B1FC
S11303B08F7E84B985B1806185B984B18F7D84B91C
S11303C085B1806285B987B18F7E87B988B1806134
S11303D088B987B18F7D87B988B1806288B9E8E62A
S11303E0F0E0808183608083EBE6F0E080818161CE
S11303F08083ECE6F0E08081806380830895CF936E
S1130400DF938AB18E7F8AB98AB182608AB9C0ECDF
S1130410D0E01882A1ECB0E01C92E2ECF0E0108293
S11304208881826088838C9188698C9380818660BE
S113043080838FEC90E09093C5008093C400DF919B
S1130440CF9108959091C00095FFFCCF8093C60092
S113045008951F920F920FB60F9211242F933F937A
S11304604F935F936F937F938F939F93AF93BF93B8
S1130470EF93FF93189915C02FEF81EE94E021506C
S113048080409040E1F700C0000018990AC08091B4
S113049000018F5F80930001853018F081E0809324
S11304A0000180910001823021F51C9910C02FEFCA
S11304B081EE94E0215080409040E1F700C00000BC
S11304C01C9905C081E0809316010E9422021D99A7
S11304D010C02FEF81EE94E0215080409040E1F76E
S11304E000C000001D9905C081E0809315010E94A1
S11304F0220280910001833021F51C9910C02FEF56
S113050081EE94E0215080409040E1F700C000006B
S11305101C9905C081E0809312010E9422021D995A
S113052010C02FEF81EE94E0215080409040E1F71D
S113053000C000001D9905C081E0809311010E9454
S11305402202FF91EF91BF91AF919F918F917F9183
S11305506F915F914F913F912F910F900FBE0F902C
S11305601F9018951F920F920FB60F9211242F937C
S11305708F939F9380910001823001F534990EC0CE
S11305802FEF81EE94E0215080409040E1F700C0CD
S11305900000349903C081E08093140135990EC0A2
S11305A02FEF81EE94E0215080409040E1F700C0AD
S11305B00000359903C081E080931301809100010C
S11305C0833001F534990EC02FEF81EE94E0215071
S11305D080409040E1F700C00000349903C081E0FE
S11305E08093100135990EC02FEF81EE94E02150D5
S11305F080409040E1F700C00000359903C081E0DD
S113060080930F019F918F912F910F900FBE0F90A8
S11306101F9018951F920F920FB60F9211248F936B
S11306208091C60080931D0180911D01873419F4C7
S113063081E08093020180911D018C3419F482E0E1
S11306408093020180911D01813619F481E0809329
S1130650060180911D01823619F481E08093050121
S113066080911D01833619F481E080930401809107
S11306701D01843619F481E08093030180911D01EA
S1130680853619F481E080930A0180911D01863634
S113069019F481E08093090180911D01873619F4D2
S11306A081E08093080180911D01883619F481E06E
S11306B08093070180910A01813021F480911D010A
S11306C080931C0180910901813021F480911D01E6
S11306D080931C0180910801813021F480911D01D7
S11306E080931C0180910701813021F480911D01C8
S11306F080931C018F910F900FBE0F901F9018953F
S1130700809116018130D1F460911B0180E090E06A
S11307100E94CD0760911A0181E090E00E94CD070C
S11307206091190182E090E00E94CD076091180168
S113073083E090E00E94CD0710921601809115018C
S11307408130D1F460911B0184E090E00E94CD07D8
S113075060911A0185E090E00E94CD076091190133
S113076086E090E00E94CD076091180187E090E058
S11307700E94CD0710921501809114018130D1F4AB
S113078060911B0188E090E00E94CD0760911A01FE
S113079089E090E00E94CD07609119018AE090E021
S11307A00E94CD07609118018BE090E00E94CD0774
S11307B010921401809113018130D1F460911B01D6
S11307C08CE090E00E94CD0760911A018DE090E0EA
S11307D00E94CD07609119018EE090E00E94CD0740
S11307E0609118018FE090E00E94CD0710921301F0
S11307F00895CF93809112018130C1F580E090E09B
S11308000E94C507C82F80930E0181E090E00E94EA
S1130810C50780930D0182E090E00E94C507809394
S11308200C0183E090E00E94C50780930B018C2F9C
S11308300E94700090E090938900809388008091DA
S11308400D010E948C0090E090938B0080938A00AD
S113085080910C010E94C0008093B30080910B0131
S11308600E94DC008093B400109212018091110167
S11308708130C1F584E090E00E94C507C82F8093C1
S11308800E0185E090E00E94C50780930D0186E08B
S113089090E00E94C50780930C0187E090E00E94DD
S11308A0C50780930B018C2F0E94700090E09093F9
S11308B089008093880080910D010E948C0090E053
S11308C090938B0080938A0080910C010E94C00059
S11308D08093B30080910B010E94DC008093B400EC
S11308E010921101809110018130C1F588E090E0EF
S11308F00E94C507C82F80930E0189E090E00E94F2
S1130900C50780930D018AE090E00E94C50780939B
S11309100C018BE090E00E94C50780930B018C2FA3
S11309200E94700090E090938900809388008091E9
S11309300D010E948C0090E090938B0080938A00BC
S113094080910C010E94C0008093B30080910B0140
S11309500E94DC008093B4001092100180910F017A
S11309608130C1F58CE090E00E94C507C82F8093C8
S11309700E018DE090E00E94C50780930D018EE08A
S113098090E00E94C50780930C018FE090E00E94E4
S1130990C50780930B018C2F0E94700090E0909308
S11309A089008093880080910D010E948C0090E062
S11309B090938B0080938A0080910C010E94C00068
S11309C08093B30080910B010E94DC008093B400FB
S11309D010920F01CF9108958FE39CE90197F1F7ED
S11309E000C0000080910201813071F58BB18062FA
S11309F08BB98BB18F7A8BB980910601813031F438
S1130A0080931601109206010E94800380910501D3
S1130A10813031F480931501109205010E94800306
S1130A2080910401813031F4809314011092040107
S1130A300E94800380910301813031F4809313017B
S1130A40109203010E94800380910201823071F5AB
S1130A508BB180648BB98BB18F7C8BB9809106018B
S1130A60813031F480931201109206010E94F9033F
S1130A7080910501813031F48093110110920501B8
S1130A800E94F90380910401813031F480931001B4
S1130A90109204010E94F90380910301813031F422
S1130AA080930F01109203010E94F9030895F894B2
S1130AB00E94B4010E94F8000E9453000E94A80002
S1130AC00E94FF0180911D010E942202789480916E
S1130AD00001823081F118F4813031F049C0833053
S1130AE099F18430D1F144C08BB180618BB98BB161
S1130AF08F718BB90E940B0180911B010E947000C1
S1130B0090E0909389008093880080911A010E945C
S1130B10700090E090938B0080938A00809119017B
S1130B200E94C0008093B300809118010E94DC00F1
S1130B308093B400CCCF8BB180628BB98BB18F72B0
S1130B408BB90E948003C3CF8BB180648BB98BB106
S1130B508F748BB90E94F903BACF0E94FF018BB145
S1130B6080688BB98BB18F788BB90E94EC04AFCFBE
S1130B708BB18F788BB9ABCF5058BB27AA270E9473
S1130B80D4050C941E070E94100738F00E94170722
S1130B9020F039F49F3F19F426F40C940D070EF459
S1130BA0E095E7FB0C940707E92F0E942F0758F301
S1130BB0BA17620773078407950720F079F4A6F53E
S1130BC00C9451070EF4E0950B2EBA2FA02D0B01B7
S1130BD0B90190010C01CA01A0011124FF27591B7E
S1130BE099F0593F50F4503E68F11A16F040A22F84
S1130BF0232F342F4427585FF3CF469537952795F5
S1130C00A795F0405395C9F77EF41F16BA0B620BF3
S1130C10730B840BBAF09150A1F0FF0FBB1F661F3A
S1130C20771F881FC2F70EC0BA0F621F731F841F7D
S1130C3048F4879577956795B795F7959E3F08F0A3
S1130C40B0CF9395880F08F09927EE0F9795879565
S1130C5008950E943D060C941E070E94170758F041
S1130C600E94100740F029F45F3F29F00C94070715
S1130C7051110C9452070C940D070E942F0768F32E
S1130C809923B1F3552391F3951B550BBB27AA2741
S1130C9062177307840738F09F5F5F4F220F331F7B
S1130CA0441FAA1FA9F335D00E2E3AF0E0E832D043
S1130CB091505040E695001CCAF72BD0FE2F29D046
S1130CC0660F771F881FBB1F261737074807AB0718
S1130CD0B0E809F0BB0B802DBF01FF2793585F4F8D
S1130CE03AF09E3F510578F00C9407070C94520794
S1130CF05F3FE4F3983ED4F3869577956795B7956F
S1130D00F7959F5FC9F7880F911D9695879597F979
S1130D100895E1E0660F771F881FBB1F62177307F2
S1130D208407BA0720F0621B730B840BBA0BEE1F07
S1130D3088F7E09508950E94370788F09F5798F048
S1130D40B92F9927B751B0F0E1F0660F771F881FCC
S1130D50991F1AF0BA95C9F714C0B13091F00E94E6
S1130D605107B1E008950C945107672F782F882715
S1130D70B85F39F0B93FCCF3869577956795B3950D
S1130D80D9F73EF490958095709561957F4F8F4F7C
S1130D909F4F0895E89409C097FB3EF49095809581
S1130DA0709561957F4F8F4F9F4F9923A9F0F92F2D
S1130DB096E9BB279395F695879577956795B795AB
S1130DC0F111F8CFFAF4BB0F11F460FF1BC06F5F91
S1130DD07F4F8F4F9F4F16C0882311F096E911C0A3
S1130DE0772321F09EE8872F762F05C0662371F0C4
S1130DF096E8862F70E060E02AF09A95660F771FD8
S1130E00881FDAF7880F9695879597F9089597F9CB
S1130E109F6780E870E060E008959FEF80EC08959C
S1130E2000240A94161617061806090608950024C5
S1130E300A9412161306140605060895092E03943F
S1130E40000C11F4882352F0BB0F40F4BF2B11F4B3
S1130E5060FF04C06F5F7F4F8F4F9F4F089557FD12
S1130E609058440F551F59F05F3F71F04795880F14
S1130E7097FB991F61F09F3F79F0879508951216AB
S1130E8013061406551FF2CF4695F1DF08C0161657
S1130E9017061806991FF1CF869571056105089408
S1130EA00895E894BB2766277727CB0197F908951F
S1130EB00E946B070C941E070E94100738F00E94D2
S1130EC0170720F0952311F00C9407070C940D07D5
S1130ED011240C9452070E942F0770F3959FC1F3BD
S1130EE0950F50E0551F629FF001729FBB27F00DD4
S1130EF0B11D639FAA27F00DB11DAA1F649F662729
S1130F00B00DA11D661F829F2227B00DA11D621F77
S1130F10739FB00DA11D621F839FA00D611D221F31
S1130F20749F3327A00D611D231F849F600D211D15
S1130F30822F762F6A2F11249F5750409AF0F1F098
S1130F4088234AF0EE0FFF1FBB1F661F771F881F01
S1130F5091505040A9F79E3F510580F00C9407072B
S1130F600C9452075F3FE4F3983ED4F3869577954B
S1130F706795B795F795E7959F5FC1F7FE2B880FA7
S1130F80911D9695879597F90895F999FECF92BD8D
S1130F9081BDF89A992780B50895262FF999FECF37
S1130FA01FBA92BD81BD20BD0FB6F894FA9AF99A82
S10D0FB00FBE01960895F894FFCFD8
S1050FBA010030
S9030000FC
