:100000000C9437000C94B2000C94B2000C94B20023
:100010000C94B2000C94B2000C94B2000C94B20098
:100020000C94B2000C94B2000C94B2000C94B20088
:100030000C94B2000C94B2000C94B2000C94B20078
:100040000C94B2000C94B2000C94B2000C94B20068
:100050000C94B2000C94B2000C94B2000C94B20058
:100060000C94B2000C94B200010001018000112434
:100070001FBECFEFD8E0DEBFCDBFE8E6F0E040E046
:1000800017C0B591A59135912591059107FD0CC03B
:1000900095918591EF01F92FE82F05900D92A21708
:1000A000B307D9F7FE0104C01D92A217B307E1F709
:1000B000ED36F40731F70E9461000C949500F89436
:0200C000FFCF70
:1000C2000E94840081E085B931990DC02FEF80E74D
:1000D20092E0215080409040E1F700C000000E9471
:1000E200A000319BFECF3299EFCF2FEF80E792E055
:1000F200215080409040E1F700C000000E94A9001A
:06010200329BFECFE1CFAD
:100108001092C1008FEF8AB91BB884B915B887B1AE
:100118008D7F87B987B18B7F87B988B1866088B9A9
:02012800089538
:10012A00EC010E94B7000E94B600CE010E94B800FE
:06013A00CE010E94B4009A
:10014000809100018F3F21F08F5F809300018BB978
:02015000089510
:1001520080910001882321F08150809300018BB9A6
:020162000895FE
:040164000C940000F7
:040168000E945F0092
:02016C000895F4
:02016E000895F2
:020170000895F0
:00000001FF
