:020000020000FC
:100000000FEF0DBF08E00EBF00E80093610005E0B0
:100010000093610002E004BD05E005BD02E607BDF6
:100020000FE007B900E308B90FEF0AB900E00BB918
:100030000FEF04B900E00BB900E00093C1007E307F
:100040006D79335B5F707F7B771F4E3D4F4776B195
:1000500074FD0E94360075FD0E943F0015B311FD2E
:1000600001C0F5CF439548B9A99AF1CF0E94480045
:100070002395203109F420E00E944C0008950E944D
:1000800048002A952F3F09F42FE00E944C00089564
:100090003FEF3A95F1F70895F0E0EEE3E20F0491B7
:0400A0000BB90895FB
:00000001FF
