:100000000C9437000C9450010C9450010C94500146
:100010000C9450010C9450010C9450010C9450011C
:100020000C9450010C9450010C9450010C9450010C
:100030000C9450010C9450010C9450010C945001FC
:100040000C9450010C9450010C9450010C945001EC
:100050000C9450010C940F010C9450010C9450011D
:100060000C9450010C9450010100010480001124F3
:100070001FBECFEFD8E0DEBFCDBFE8E6F0E040E046
:1000800017C0B591A59135912591059107FD0CC03B
:1000900095918591EF01F92FE82F05900D92A21708
:1000A000B307D9F7FE0104C01D92A217B307E1F709
:1000B000ED36F40731F70E9469000C943501F8948D
:0200C000FFCF70
:1000C2003F065B4F666D7D077F6F777C395E797186
:1000D200F8940E94E0007894EAE7F0E0808180647E
:1000E20080838FE19EE40197F1F700C0000085B1A3
:1000F2008E7F85B985B1826085B985B18B7F85B9DF
:100102008091000190E0A0E08E539F4FAF4FFC0121
:100112008491A7FD80818BB98FE19EE40197F1F76D
:1001220000C0000085B18E7F85B985B18D7F85B90C
:1001320085B1846085B98091010190E0A0E08E5381
:100142009F4FAF4FFC018491A7FD80818BB98FE156
:100152009EE40197F1F700C0000085B1816085B986
:1001620085B1826085B985B18B7F85B980910301A4
:100172008BB931990AC08FE39CE90197F1F700C06E
:1001820000000E944001319BFECF32990AC08FE3EA
:100192009CE90197F1F700C000000E944801329BE0
:1001A200FECF9091020180910301981304C085B1A2
:0E01B200886085B996CF85B1877F85B992CFD9
:1001C000ACE7B0E085E08C93EAE7F0E010828C9138
:1001D00080628C938C9180648C938C918F778C93BC
:1001E000808180688083808188608083808187604F
:1001F0008083EEE7F0E08081806280831092C1000E
:100200008FEF8AB91BB884B915B887B18D7F87B9CC
:0E02100087B18B7F87B988B1866088B9089561
:10021E001F920F920FB60F9211248F939F93EF930D
:10022E00FF938091790080930201982F9F70909395
:10023E00010182958F7080930001EAE7F0E08081E2
:10024E0080618083808180648083FF91EF919F9194
:0C025E008F910F900FBE0F901F9018950D
:10026A00EC010E9455010E945401CE010E945601E0
:06027A00CE010E945201BA
:10028000809103018F3F19F08F5F809303010895E0
:1002900080910301882319F0815080930301089510
:0402A0000C940000BA
:0402A4000E945F0055
:0202A8000895B7
:0202AA000895B5
:0202AC000895B3
:00000001FF
