:100000000C9434000C9446000C9446000C9446006A
:100010000C9446000C9446000C9446000C94460048
:100020000C9446000C9446000C9446000C94F70087
:100030000C9446000C9446000C9446000C94460028
:100040000C9446000C9446000C9446000C94460018
:100050000C9446000C949A000C9446000C944600B4
:100060000C9446000C94460011241FBECFEFD8E03C
:10007000DEBFCDBF21E0A0E0B1E001C01D92A23003
:10008000B207E1F70E9467000C941D010C94000078
:10009000ACE7B0E085E08C93EAE7F0E010828C9169
:1000A00080628C938C9180648C938C918F778C93ED
:1000B0008081806880838081886080838081876080
:1000C0008083EEE7F0E080818062808308958FEF87
:1000D00084B915B8F8940E9448000E94CE000E948E
:1000E00001017894EAE7F0E08081806480831092D7
:1000F000C0001092C100809101010E94EC00ECE769
:10010000F0E08081807F8083808183608083809124
:1001100000018F5F80930001811104C085B181606F
:1001200085B9E9CF909101018913E5CF85B18E7F23
:1001300085B9E1CF1F920F920FB60F9211242F9322
:100140003F934F935F936F937F938F939F93AF935F
:10015000BF93EF93FF9380917900809301010E94F8
:10016000EC00809101010E941401EAE7F0E0808137
:1001700080618083808180648083FF91EF91BF9153
:10018000AF919F918F917F916F915F914F913F912F
:100190002F910F900FBE0F901F90189584B1826021
:1001A00084B9E0E8F0E01082A1E8B0E01C92808120
:1001B000806880838081826080838C918D618C9344
:1001C00081E08093870087E3809386001092890006
:1001D00089E08093880008959BEA899F812D1124EE
:1001E00086958695109289008093880008951F92C5
:1001F0000F920FB60F9211240F900FBE0F901F9009
:10020000189584B1886084B9E0EBF0E01082A1EB2E
:10021000B0E01C92808180688083808183608083CD
:100220008C918F608C9308959BEA899F812D112476
:0E023000869586958093B3000895F894FFCFCD
:00000001FF
