:100000000C9434000C9451000C9451000C94510049
:100010000C9451000C9451000C9451000C9451001C
:100020000C9451000C9451000C9451000C9451000C
:100030000C9451000C9451000C9451000C945100FC
:100040000C9451000C9451000C949E000C9451009F
:100050000C9451000C9451000C9451000C945100DC
:100060000C9451000C94510011241FBECFEFD8E026
:10007000DEBFCDBF11E0A0E0B1E0E0E7F1E002C0FB
:1000800005900D92AE30B107D9F721E0AEE0B1E0B6
:1000900001C01D92AF30B207E1F70E9493000C94AB
:1000A000B6000C940000CF93DF938AB18E7F8AB99B
:1000B0008AB182608AB98AB1806C8AB98BB18F7B30
:1000C0008BB98BB18F778BB98FEF84B915B8C0EC32
:1000D000D0E01882A1ECB0E01C92E2ECF0E01082DB
:1000E0008881826088838C9188698C938081866006
:1000F00080838FEC90E09093C5008093C400DF91E3
:10010000CF910895AC0120E007C09091C00095FF09
:10011000FCCF3093C6002F5FFA01E20FF11D308152
:100120003111F3CF08950E945300789480E091E05C
:100130000E94820080910E0185B9FCCF1F920F9220
:100140000FB60F9211248F938091C60080930E01F9
:100150008091C00085FFFCCF80910E018093C60086
:100160008F910F900FBE0F901F901895F894FFCFAE
:0E017000686F6C61206D756E646F20584400DE
:00000001FF
