:100000000C9434000C9451000C9451000C94510049
:100010000C9451000C9451000C9451000C9451001C
:100020000C9451000C9451000C9451000C9451000C
:100030000C9451000C9451000C9451000C945100FC
:100040000C9451000C9451000C9471010C945100CB
:100050000C9451000C94CD010C9451000C9451005F
:100060000C9451000C94510011241FBECFEFD8E026
:10007000DEBFCDBF11E0A0E0B1E0E4E3F4E002C0F8
:1000800005900D92A63CB107D9F721E0A6ECB1E0AE
:1000900001C01D92AA3CB207E1F70E9405010C9431
:1000A00018020C940000CF93DF938AB18E7F8AB937
:1000B0008AB182608AB98AB1806C8AB98BB18F7B30
:1000C0008BB98BB18F778BB98FEF84B915B8C0EC32
:1000D000D0E01882A1ECB0E01C92E2ECF0E01082DB
:1000E0008881826088838C9188698C938081866006
:1000F00080838FEC90E09093C5008093C400DF91E3
:10010000CF9108959091C00095FFFCCF8093C600D9
:100110000895AC0120E007C09091C00095FFFCCF8E
:100120003093C6002F5FFA01E20FF11D30813111CB
:10013000F3CF0895ACE7B0E085E08C93EAE7F0E018
:1001400010828C9180628C938C9180648C938C91C2
:100150008F778C93808180688083808188608083A2
:10016000808187608083EEE7F0E080818062808319
:100170000895CF93DF932DEC829FC12D1124C69556
:10018000C695C695CC0F9C2F990F990FC90F982F24
:100190009C1BC92F90E08C1B9109EAE0F0E0BF01A5
:1001A0000E94F001629FD12D1124D695D695D69547
:1001B000DD0F8D2F880F880FD80F862F8D1BD82F1E
:1001C0007727CB018D1B9109BF010E94F001629F2F
:1001D000812D1124869586958695880F282F220FCC
:1001E000220F820F681B862F805D0E94820080E3B1
:1001F0008D0F0E94820080E38C0F0E9482008AE0B3
:100200000E948200DF91CF910895F8940E945300DC
:100210000E949A0078948091C8010E948200809187
:10022000C601813061F48091C80120E4829FC00141
:1002300011248BB98091C8018695869585B98091E6
:100240000001813009F045C01092C80181E091E0C1
:100250000E9489008AE191E00E9489008091C80192
:100260000E9482008091C8019FEC980F9230D0F7D5
:100270000E9482008091C801813319F0823399F085
:1002800028C0EAE7F0E08081806480838091C70124
:100290000E94B900109200018FE39CE90197F1F7E9
:1002A00000C0000016C0109200018DE291E00E9493
:1002B00089008091C90120E4829FC00111248BB97B
:1002C0008091C9018695869585B980910001882322
:1002D000E1F381E0809300018EE391E00E948900C8
:1002E0009ACF1F920F920FB60F9211242F933F9324
:1002F0004F935F936F937F938F939F93AF93BF932E
:10030000EF93FF938091C6008093C9018091C9014A
:100310008093C801909100019130D9F4813339F470
:100320001092C60186E491E00E94890012C08233D7
:1003300061F481E08093C60184E691E00E94890027
:100340008091C8010E94820004C080E991E00E946F
:1003500089008091000181110FC08091C90120E4C2
:10036000829FC00111248BB98091C9018695869521
:1003700085B981E080930001FF91EF91BF91AF912A
:100380009F918F917F916F915F914F913F912F91AD
:100390000F900FBE0F901F9018951F920F920FB6DF
:1003A0000F9211248F93EF93FF93809179008093A4
:1003B000C7018295880F880F807C8BB98091C70117
:1003C0008695869585B9EAE7F0E080818061808333
:1003D000FF91EF918F910F900FBE0F901F90189586
:1003E00097FB072E16F4009407D077FD09D00E94E2
:1003F000040207FC05D03EF4909581959F4F089527
:10040000709561957F4F0895AA1BBB1B51E107C0F2
:10041000AA1FBB1FA617B70710F0A61BB70B881F94
:10042000991F5A95A9F780959095BC01CD01089523
:04043000F894FFCF6E
:10043400010A20312E204C65657220706F74656E40
:100444006369F36D6574726F2E000A20322E2045A5
:100454006E766961722041534349492E00496E67A3
:100464007265736520756E204153434949000A2023
:1004740053616C6972000A204C6579656E646F2063
:10048400656C20706F74656E6369F36D6574726F6B
:100494002E2E2E000A204C6579656E646F20415320
:1004A400434949206465736465206C6120746572F6
:1004B4006D696E616C2073657269616C2E2E2E00FD
:1004C4000A205375206469676974616369F36E2057
:1004D4006E6F2065732076E16C6964612C20696E0F
:1004E400677265736520756E2076616C6F7220315A
:0604F400206F20322E00F3
:00000001FF
